{
  "contractName": "TaskContract",
  "abi": [
    {
      "anonymous": false,
      "inputs": [
        {
          "indexed": false,
          "internalType": "address",
          "name": "recipient",
          "type": "address"
        },
        {
          "indexed": false,
          "internalType": "uint256",
          "name": "taskId",
          "type": "uint256"
        }
      ],
      "name": "AddTask",
      "type": "event"
    },
    {
      "anonymous": false,
      "inputs": [
        {
          "indexed": false,
          "internalType": "uint256",
          "name": "taskId",
          "type": "uint256"
        },
        {
          "indexed": false,
          "internalType": "bool",
          "name": "isDeleted",
          "type": "bool"
        }
      ],
      "name": "DeleteTask",
      "type": "event"
    },
    {
      "inputs": [
        {
          "internalType": "string",
          "name": "taskText",
          "type": "string"
        },
        {
          "internalType": "bool",
          "name": "isDeleted",
          "type": "bool"
        }
      ],
      "name": "addTask",
      "outputs": [],
      "stateMutability": "nonpayable",
      "type": "function"
    },
    {
      "inputs": [],
      "name": "getMyTasks",
      "outputs": [
        {
          "components": [
            {
              "internalType": "uint256",
              "name": "id",
              "type": "uint256"
            },
            {
              "internalType": "string",
              "name": "taskText",
              "type": "string"
            },
            {
              "internalType": "bool",
              "name": "isDeleted",
              "type": "bool"
            }
          ],
          "internalType": "struct TaskContract.Task[]",
          "name": "",
          "type": "tuple[]"
        }
      ],
      "stateMutability": "view",
      "type": "function"
    },
    {
      "inputs": [
        {
          "internalType": "uint256",
          "name": "taskId",
          "type": "uint256"
        },
        {
          "internalType": "bool",
          "name": "isDeleted",
          "type": "bool"
        }
      ],
      "name": "deleteTask",
      "outputs": [],
      "stateMutability": "nonpayable",
      "type": "function"
    }
  ],
  "bytecode": "0x608060405234801561001057600080fd5b50610e53806100206000396000f3fe608060405234801561001057600080fd5b50600436106100415760003560e01c806320df4581146100465780636e13f81814610062578063aaba290714610080575b600080fd5b610060600480360381019061005b9190610745565b61009c565b005b61006a6101bf565b604051610077919061095a565b60405180910390f35b61009a600480360381019061009591906109a8565b6104af565b005b60008080549050905060006040518060600160405280838152602001858152602001841515815250908060018154018082558091505060019003906000526020600020906003020160009091909190915060008201518160000155602082015181600101908161010c9190610bf4565b5060408201518160020160006101000a81548160ff0219169083151502179055505050336001600083815260200190815260200160002060006101000a81548173ffffffffffffffffffffffffffffffffffffffff021916908373ffffffffffffffffffffffffffffffffffffffff1602179055507f1f54e1ba1832d428fbd7e7792beaf62b1fc5a382c207ffd614209c1413e94fda33826040516101b2929190610d16565b60405180910390a1505050565b60606000808054905067ffffffffffffffff8111156101e1576101e06105e2565b5b60405190808252806020026020018201604052801561021a57816020015b610207610590565b8152602001906001900390816101ff5790505b5090506000805b6000805490508110156103f5573373ffffffffffffffffffffffffffffffffffffffff166001600083815260200190815260200160002060009054906101000a900473ffffffffffffffffffffffffffffffffffffffff1673ffffffffffffffffffffffffffffffffffffffff161480156102cc5750600081815481106102ab576102aa610d3f565b5b906000526020600020906003020160020160009054906101000a900460ff16155b156103e257600081815481106102e5576102e4610d3f565b5b90600052602060002090600302016040518060600160405290816000820154815260200160018201805461031890610a17565b80601f016020809104026020016040519081016040528092919081815260200182805461034490610a17565b80156103915780601f1061036657610100808354040283529160200191610391565b820191906000526020600020905b81548152906001019060200180831161037457829003601f168201915b505050505081526020016002820160009054906101000a900460ff1615151515815250508383815181106103c8576103c7610d3f565b5b602002602001018190525081806103de90610d9d565b9250505b80806103ed90610d9d565b915050610221565b5060008167ffffffffffffffff811115610412576104116105e2565b5b60405190808252806020026020018201604052801561044b57816020015b610438610590565b8152602001906001900390816104305790505b50905060005b828110156104a55783818151811061046c5761046b610d3f565b5b602002602001015182828151811061048757610486610d3f565b5b6020026020010181905250808061049d90610d9d565b915050610451565b5080935050505090565b3373ffffffffffffffffffffffffffffffffffffffff166001600084815260200190815260200160002060009054906101000a900473ffffffffffffffffffffffffffffffffffffffff1673ffffffffffffffffffffffffffffffffffffffff160361058c57806000838154811061052a57610529610d3f565b5b906000526020600020906003020160020160006101000a81548160ff0219169083151502179055507ff88a35c3d2016c409a46570b994a17b408dbc83c14a03f521512d50b85386d068282604051610583929190610df4565b60405180910390a15b5050565b604051806060016040528060008152602001606081526020016000151581525090565b6000604051905090565b600080fd5b600080fd5b600080fd5b600080fd5b6000601f19601f8301169050919050565b7f4e487b7100000000000000000000000000000000000000000000000000000000600052604160045260246000fd5b61061a826105d1565b810181811067ffffffffffffffff82111715610639576106386105e2565b5b80604052505050565b600061064c6105b3565b90506106588282610611565b919050565b600067ffffffffffffffff821115610678576106776105e2565b5b610681826105d1565b9050602081019050919050565b82818337600083830152505050565b60006106b06106ab8461065d565b610642565b9050828152602081018484840111156106cc576106cb6105cc565b5b6106d784828561068e565b509392505050565b600082601f8301126106f4576106f36105c7565b5b813561070484826020860161069d565b91505092915050565b60008115159050919050565b6107228161070d565b811461072d57600080fd5b50565b60008135905061073f81610719565b92915050565b6000806040838503121561075c5761075b6105bd565b5b600083013567ffffffffffffffff81111561077a576107796105c2565b5b610786858286016106df565b925050602061079785828601610730565b9150509250929050565b600081519050919050565b600082825260208201905092915050565b6000819050602082019050919050565b6000819050919050565b6107e0816107cd565b82525050565b600081519050919050565b600082825260208201905092915050565b60005b83811015610820578082015181840152602081019050610805565b60008484015250505050565b6000610837826107e6565b61084181856107f1565b9350610851818560208601610802565b61085a816105d1565b840191505092915050565b61086e8161070d565b82525050565b600060608301600083015161088c60008601826107d7565b50602083015184820360208601526108a4828261082c565b91505060408301516108b96040860182610865565b508091505092915050565b60006108d08383610874565b905092915050565b6000602082019050919050565b60006108f0826107a1565b6108fa81856107ac565b93508360208202850161090c856107bd565b8060005b85811015610948578484038952815161092985826108c4565b9450610934836108d8565b925060208a01995050600181019050610910565b50829750879550505050505092915050565b6000602082019050818103600083015261097481846108e5565b905092915050565b610985816107cd565b811461099057600080fd5b50565b6000813590506109a28161097c565b92915050565b600080604083850312156109bf576109be6105bd565b5b60006109cd85828601610993565b92505060206109de85828601610730565b9150509250929050565b7f4e487b7100000000000000000000000000000000000000000000000000000000600052602260045260246000fd5b60006002820490506001821680610a2f57607f821691505b602082108103610a4257610a416109e8565b5b50919050565b60008190508160005260206000209050919050565b60006020601f8301049050919050565b600082821b905092915050565b600060088302610aaa7fffffffffffffffffffffffffffffffffffffffffffffffffffffffffffffffff82610a6d565b610ab48683610a6d565b95508019841693508086168417925050509392505050565b6000819050919050565b6000610af1610aec610ae7846107cd565b610acc565b6107cd565b9050919050565b6000819050919050565b610b0b83610ad6565b610b1f610b1782610af8565b848454610a7a565b825550505050565b600090565b610b34610b27565b610b3f818484610b02565b505050565b5b81811015610b6357610b58600082610b2c565b600181019050610b45565b5050565b601f821115610ba857610b7981610a48565b610b8284610a5d565b81016020851015610b91578190505b610ba5610b9d85610a5d565b830182610b44565b50505b505050565b600082821c905092915050565b6000610bcb60001984600802610bad565b1980831691505092915050565b6000610be48383610bba565b9150826002028217905092915050565b610bfd826107e6565b67ffffffffffffffff811115610c1657610c156105e2565b5b610c208254610a17565b610c2b828285610b67565b600060209050601f831160018114610c5e5760008415610c4c578287015190505b610c568582610bd8565b865550610cbe565b601f198416610c6c86610a48565b60005b82811015610c9457848901518255600182019150602085019450602081019050610c6f565b86831015610cb15784890151610cad601f891682610bba565b8355505b6001600288020188555050505b505050505050565b600073ffffffffffffffffffffffffffffffffffffffff82169050919050565b6000610cf182610cc6565b9050919050565b610d0181610ce6565b82525050565b610d10816107cd565b82525050565b6000604082019050610d2b6000830185610cf8565b610d386020830184610d07565b9392505050565b7f4e487b7100000000000000000000000000000000000000000000000000000000600052603260045260246000fd5b7f4e487b7100000000000000000000000000000000000000000000000000000000600052601160045260246000fd5b6000610da8826107cd565b91507fffffffffffffffffffffffffffffffffffffffffffffffffffffffffffffffff8203610dda57610dd9610d6e565b5b600182019050919050565b610dee8161070d565b82525050565b6000604082019050610e096000830185610d07565b610e166020830184610de5565b939250505056fea26469706673582212207a88371dd84260413fead6679d0b73e32f3637822f76f92df1113d9d83b0a56b64736f6c63430008120033",
  "immutableReferences": {},
  "source": "// SPDX-License-Identifier: MIT\npragma solidity >=0.4.22 <0.9.0;\n\ncontract TaskContract {\n    event AddTask(address recipient,uint taskId);\n    event DeleteTask(uint taskId, bool isDeleted);\n    \n    struct Task{\n        uint id;\n        string taskText;\n        bool isDeleted;\n    }\n\n    Task[] private tasks;\n    mapping(uint => address) taskToOwner;\n\n    function addTask(string memory taskText,bool isDeleted) external {\n        uint taskId = tasks.length;\n        tasks.push(Task(taskId,taskText,isDeleted));\n        taskToOwner[taskId] = msg.sender;\n        emit AddTask(msg.sender,taskId);\n    }\n\n    function getMyTasks() external view returns(Task[] memory){\n        Task[] memory temporary = new Task[](tasks.length);\n        uint counter = 0;\n        for(uint i=0;i<tasks.length;i++){\n            if(taskToOwner[i] == msg.sender && !tasks[i].isDeleted){\n                temporary[counter] = tasks[i];\n                counter++;\n            }\n        }\n        Task[] memory result = new Task[](counter);\n        for(uint i=0;i<counter;i++){\n            result[i] = temporary[i];\n        }\n        return result;\n    }\n\n    function deleteTask(uint taskId, bool isDeleted) external {\n        if(taskToOwner[taskId] == msg.sender){\n            tasks[taskId].isDeleted = isDeleted;\n            emit DeleteTask(taskId, isDeleted);\n        }\n    }\n}\n",
  "sourcePath": "C:\\Users\\lenovo\\Desktop\\dev\\TODO\\backend\\contracts\\TaskContract.sol",
  "compiler": {
    "name": "solc",
    "version": "0.8.18+commit.87f61d96.Emscripten.clang"
  },
  "schemaVersion": "3.4.12",
  "updatedAt": "2023-02-25T05:53:01.682Z",
  "devdoc": {
    "kind": "dev",
    "methods": {},
    "version": 1
  },
  "userdoc": {
    "kind": "user",
    "methods": {},
    "version": 1
  }
}